{
  "_format": "hh-sol-artifact-1",
  "contractName": "MockERC20",
  "sourceName": "contracts/test/MockERC20.sol",
  "abi": [
    {
      "inputs": [
        {
          "internalType": "string",
          "name": "name",
          "type": "string"
        },
        {
          "internalType": "string",
          "name": "symbol",
          "type": "string"
        },
        {
          "internalType": "uint8",
          "name": "decimals",
          "type": "uint8"
        }
      ],
      "stateMutability": "nonpayable",
      "type": "constructor"
    },
    {
      "inputs": [
        {
          "internalType": "address",
          "name": "spender",
          "type": "address"
        },
        {
          "internalType": "uint256",
          "name": "allowance",
          "type": "uint256"
        },
        {
          "internalType": "uint256",
          "name": "needed",
          "type": "uint256"
        }
      ],
      "name": "ERC20InsufficientAllowance",
      "type": "error"
    },
    {
      "inputs": [
        {
          "internalType": "address",
          "name": "sender",
          "type": "address"
        },
        {
          "internalType": "uint256",
          "name": "balance",
          "type": "uint256"
        },
        {
          "internalType": "uint256",
          "name": "needed",
          "type": "uint256"
        }
      ],
      "name": "ERC20InsufficientBalance",
      "type": "error"
    },
    {
      "inputs": [
        {
          "internalType": "address",
          "name": "approver",
          "type": "address"
        }
      ],
      "name": "ERC20InvalidApprover",
      "type": "error"
    },
    {
      "inputs": [
        {
          "internalType": "address",
          "name": "receiver",
          "type": "address"
        }
      ],
      "name": "ERC20InvalidReceiver",
      "type": "error"
    },
    {
      "inputs": [
        {
          "internalType": "address",
          "name": "sender",
          "type": "address"
        }
      ],
      "name": "ERC20InvalidSender",
      "type": "error"
    },
    {
      "inputs": [
        {
          "internalType": "address",
          "name": "spender",
          "type": "address"
        }
      ],
      "name": "ERC20InvalidSpender",
      "type": "error"
    },
    {
      "anonymous": false,
      "inputs": [
        {
          "indexed": true,
          "internalType": "address",
          "name": "owner",
          "type": "address"
        },
        {
          "indexed": true,
          "internalType": "address",
          "name": "spender",
          "type": "address"
        },
        {
          "indexed": false,
          "internalType": "uint256",
          "name": "value",
          "type": "uint256"
        }
      ],
      "name": "Approval",
      "type": "event"
    },
    {
      "anonymous": false,
      "inputs": [
        {
          "indexed": true,
          "internalType": "address",
          "name": "from",
          "type": "address"
        },
        {
          "indexed": true,
          "internalType": "address",
          "name": "to",
          "type": "address"
        },
        {
          "indexed": false,
          "internalType": "uint256",
          "name": "value",
          "type": "uint256"
        }
      ],
      "name": "Transfer",
      "type": "event"
    },
    {
      "inputs": [
        {
          "internalType": "address",
          "name": "owner",
          "type": "address"
        },
        {
          "internalType": "address",
          "name": "spender",
          "type": "address"
        }
      ],
      "name": "allowance",
      "outputs": [
        {
          "internalType": "uint256",
          "name": "",
          "type": "uint256"
        }
      ],
      "stateMutability": "view",
      "type": "function"
    },
    {
      "inputs": [
        {
          "internalType": "address",
          "name": "spender",
          "type": "address"
        },
        {
          "internalType": "uint256",
          "name": "value",
          "type": "uint256"
        }
      ],
      "name": "approve",
      "outputs": [
        {
          "internalType": "bool",
          "name": "",
          "type": "bool"
        }
      ],
      "stateMutability": "nonpayable",
      "type": "function"
    },
    {
      "inputs": [
        {
          "internalType": "address",
          "name": "account",
          "type": "address"
        }
      ],
      "name": "balanceOf",
      "outputs": [
        {
          "internalType": "uint256",
          "name": "",
          "type": "uint256"
        }
      ],
      "stateMutability": "view",
      "type": "function"
    },
    {
      "inputs": [],
      "name": "decimals",
      "outputs": [
        {
          "internalType": "uint8",
          "name": "",
          "type": "uint8"
        }
      ],
      "stateMutability": "view",
      "type": "function"
    },
    {
      "inputs": [
        {
          "internalType": "address",
          "name": "to",
          "type": "address"
        },
        {
          "internalType": "uint256",
          "name": "amount",
          "type": "uint256"
        }
      ],
      "name": "mint",
      "outputs": [],
      "stateMutability": "nonpayable",
      "type": "function"
    },
    {
      "inputs": [],
      "name": "name",
      "outputs": [
        {
          "internalType": "string",
          "name": "",
          "type": "string"
        }
      ],
      "stateMutability": "view",
      "type": "function"
    },
    {
      "inputs": [],
      "name": "symbol",
      "outputs": [
        {
          "internalType": "string",
          "name": "",
          "type": "string"
        }
      ],
      "stateMutability": "view",
      "type": "function"
    },
    {
      "inputs": [],
      "name": "totalSupply",
      "outputs": [
        {
          "internalType": "uint256",
          "name": "",
          "type": "uint256"
        }
      ],
      "stateMutability": "view",
      "type": "function"
    },
    {
      "inputs": [
        {
          "internalType": "address",
          "name": "to",
          "type": "address"
        },
        {
          "internalType": "uint256",
          "name": "value",
          "type": "uint256"
        }
      ],
      "name": "transfer",
      "outputs": [
        {
          "internalType": "bool",
          "name": "",
          "type": "bool"
        }
      ],
      "stateMutability": "nonpayable",
      "type": "function"
    },
    {
      "inputs": [
        {
          "internalType": "address",
          "name": "from",
          "type": "address"
        },
        {
          "internalType": "address",
          "name": "to",
          "type": "address"
        },
        {
          "internalType": "uint256",
          "name": "value",
          "type": "uint256"
        }
      ],
      "name": "transferFrom",
      "outputs": [
        {
          "internalType": "bool",
          "name": "",
          "type": "bool"
        }
      ],
      "stateMutability": "nonpayable",
      "type": "function"
    }
  ],
  "bytecode": "0x60806040523480156200001157600080fd5b5060405162000a9938038062000a99833981016040819052620000349162000124565b8282600362000044838262000238565b50600462000053828262000238565b50505050505062000304565b634e487b7160e01b600052604160045260246000fd5b600082601f8301126200008757600080fd5b81516001600160401b0380821115620000a457620000a46200005f565b604051601f8301601f19908116603f01168101908282118183101715620000cf57620000cf6200005f565b81604052838152602092508683858801011115620000ec57600080fd5b600091505b83821015620001105785820183015181830184015290820190620000f1565b600093810190920192909252949350505050565b6000806000606084860312156200013a57600080fd5b83516001600160401b03808211156200015257600080fd5b620001608783880162000075565b945060208601519150808211156200017757600080fd5b50620001868682870162000075565b925050604084015160ff811681146200019e57600080fd5b809150509250925092565b600181811c90821680620001be57607f821691505b602082108103620001df57634e487b7160e01b600052602260045260246000fd5b50919050565b601f8211156200023357600081815260208120601f850160051c810160208610156200020e5750805b601f850160051c820191505b818110156200022f578281556001016200021a565b5050505b505050565b81516001600160401b038111156200025457620002546200005f565b6200026c81620002658454620001a9565b84620001e5565b602080601f831160018114620002a457600084156200028b5750858301515b600019600386901b1c1916600185901b1785556200022f565b600085815260208120601f198616915b82811015620002d557888601518255948401946001909101908401620002b4565b5085821015620002f45787850151600019600388901b60f8161c191681555b5050505050600190811b01905550565b61078580620003146000396000f3fe608060405234801561001057600080fd5b506004361061009e5760003560e01c806340c10f191161006657806340c10f191461011857806370a082311461012d57806395d89b4114610156578063a9059cbb1461015e578063dd62ed3e1461017157600080fd5b806306fdde03146100a3578063095ea7b3146100c157806318160ddd146100e457806323b872dd146100f6578063313ce56714610109575b600080fd5b6100ab6101aa565b6040516100b891906105cf565b60405180910390f35b6100d46100cf366004610639565b61023c565b60405190151581526020016100b8565b6002545b6040519081526020016100b8565b6100d4610104366004610663565b610256565b604051601281526020016100b8565b61012b610126366004610639565b61027a565b005b6100e861013b36600461069f565b6001600160a01b031660009081526020819052604090205490565b6100ab610288565b6100d461016c366004610639565b610297565b6100e861017f3660046106c1565b6001600160a01b03918216600090815260016020908152604080832093909416825291909152205490565b6060600380546101b9906106f4565b80601f01602080910402602001604051908101604052809291908181526020018280546101e5906106f4565b80156102325780601f1061020757610100808354040283529160200191610232565b820191906000526020600020905b81548152906001019060200180831161021557829003601f168201915b5050505050905090565b60003361024a8185856102a5565b60019150505b92915050565b6000336102648582856102b7565b61026f85858561033b565b506001949350505050565b610284828261039a565b5050565b6060600480546101b9906106f4565b60003361024a81858561033b565b6102b283838360016103d0565b505050565b6001600160a01b03838116600090815260016020908152604080832093861683529290522054600019811015610335578181101561032657604051637dc7a0d960e11b81526001600160a01b038416600482015260248101829052604481018390526064015b60405180910390fd5b610335848484840360006103d0565b50505050565b6001600160a01b03831661036557604051634b637e8f60e11b81526000600482015260240161031d565b6001600160a01b03821661038f5760405163ec442f0560e01b81526000600482015260240161031d565b6102b28383836104a5565b6001600160a01b0382166103c45760405163ec442f0560e01b81526000600482015260240161031d565b610284600083836104a5565b6001600160a01b0384166103fa5760405163e602df0560e01b81526000600482015260240161031d565b6001600160a01b03831661042457604051634a1406b160e11b81526000600482015260240161031d565b6001600160a01b038085166000908152600160209081526040808320938716835292905220829055801561033557826001600160a01b0316846001600160a01b03167f8c5be1e5ebec7d5bd14f71427d1e84f3dd0314c0f7b2291e5b200ac8c7c3b9258460405161049791815260200190565b60405180910390a350505050565b6001600160a01b0383166104d05780600260008282546104c5919061072e565b909155506105429050565b6001600160a01b038316600090815260208190526040902054818110156105235760405163391434e360e21b81526001600160a01b0385166004820152602481018290526044810183905260640161031d565b6001600160a01b03841660009081526020819052604090209082900390555b6001600160a01b03821661055e5760028054829003905561057d565b6001600160a01b03821660009081526020819052604090208054820190555b816001600160a01b0316836001600160a01b03167fddf252ad1be2c89b69c2b068fc378daa952ba7f163c4a11628f55a4df523b3ef836040516105c291815260200190565b60405180910390a3505050565b600060208083528351808285015260005b818110156105fc578581018301518582016040015282016105e0565b506000604082860101526040601f19601f8301168501019250505092915050565b80356001600160a01b038116811461063457600080fd5b919050565b6000806040838503121561064c57600080fd5b6106558361061d565b946020939093013593505050565b60008060006060848603121561067857600080fd5b6106818461061d565b925061068f6020850161061d565b9150604084013590509250925092565b6000602082840312156106b157600080fd5b6106ba8261061d565b9392505050565b600080604083850312156106d457600080fd5b6106dd8361061d565b91506106eb6020840161061d565b90509250929050565b600181811c9082168061070857607f821691505b60208210810361072857634e487b7160e01b600052602260045260246000fd5b50919050565b8082018082111561025057634e487b7160e01b600052601160045260246000fdfea26469706673582212206b591151ca1c6a7ffc5e83fca0a8a611370463b6c3c5282807418aef059dbddb64736f6c63430008140033",
  "linkReferences": {},
  "deployedLinkReferences": {}
}