{
  "_format": "hh-sol-artifact-1",
  "contractName": "USDTPayment",
  "sourceName": "contracts/USDTPayment.sol",
  "abi": [
    {
      "inputs": [
        {
          "internalType": "address",
          "name": "_usdtToken",
          "type": "address"
        },
        {
          "internalType": "address",
          "name": "_adminWallet",
          "type": "address"
        }
      ],
      "stateMutability": "nonpayable",
      "type": "constructor"
    },
    {
      "inputs": [
        {
          "internalType": "address",
          "name": "owner",
          "type": "address"
        }
      ],
      "name": "OwnableInvalidOwner",
      "type": "error"
    },
    {
      "inputs": [
        {
          "internalType": "address",
          "name": "account",
          "type": "address"
        }
      ],
      "name": "OwnableUnauthorizedAccount",
      "type": "error"
    },
    {
      "inputs": [],
      "name": "ReentrancyGuardReentrantCall",
      "type": "error"
    },
    {
      "inputs": [
        {
          "internalType": "address",
          "name": "token",
          "type": "address"
        }
      ],
      "name": "SafeERC20FailedOperation",
      "type": "error"
    },
    {
      "anonymous": false,
      "inputs": [
        {
          "indexed": true,
          "internalType": "address",
          "name": "oldAdmin",
          "type": "address"
        },
        {
          "indexed": true,
          "internalType": "address",
          "name": "newAdmin",
          "type": "address"
        }
      ],
      "name": "AdminWalletUpdated",
      "type": "event"
    },
    {
      "anonymous": false,
      "inputs": [
        {
          "indexed": true,
          "internalType": "address",
          "name": "from",
          "type": "address"
        },
        {
          "indexed": true,
          "internalType": "address",
          "name": "to",
          "type": "address"
        },
        {
          "indexed": false,
          "internalType": "uint256",
          "name": "amount",
          "type": "uint256"
        },
        {
          "indexed": false,
          "internalType": "uint256",
          "name": "paymentId",
          "type": "uint256"
        }
      ],
      "name": "Deposit",
      "type": "event"
    },
    {
      "anonymous": false,
      "inputs": [
        {
          "indexed": true,
          "internalType": "address",
          "name": "previousOwner",
          "type": "address"
        },
        {
          "indexed": true,
          "internalType": "address",
          "name": "newOwner",
          "type": "address"
        }
      ],
      "name": "OwnershipTransferred",
      "type": "event"
    },
    {
      "inputs": [],
      "name": "adminWallet",
      "outputs": [
        {
          "internalType": "address",
          "name": "",
          "type": "address"
        }
      ],
      "stateMutability": "view",
      "type": "function"
    },
    {
      "inputs": [
        {
          "internalType": "uint256",
          "name": "paymentId",
          "type": "uint256"
        },
        {
          "internalType": "uint256",
          "name": "amount",
          "type": "uint256"
        }
      ],
      "name": "deposit",
      "outputs": [],
      "stateMutability": "nonpayable",
      "type": "function"
    },
    {
      "inputs": [],
      "name": "owner",
      "outputs": [
        {
          "internalType": "address",
          "name": "",
          "type": "address"
        }
      ],
      "stateMutability": "view",
      "type": "function"
    },
    {
      "inputs": [],
      "name": "renounceOwnership",
      "outputs": [],
      "stateMutability": "nonpayable",
      "type": "function"
    },
    {
      "inputs": [
        {
          "internalType": "address",
          "name": "token",
          "type": "address"
        },
        {
          "internalType": "uint256",
          "name": "amount",
          "type": "uint256"
        }
      ],
      "name": "rescueTokens",
      "outputs": [],
      "stateMutability": "nonpayable",
      "type": "function"
    },
    {
      "inputs": [
        {
          "internalType": "address",
          "name": "_newAdmin",
          "type": "address"
        }
      ],
      "name": "setAdmin",
      "outputs": [],
      "stateMutability": "nonpayable",
      "type": "function"
    },
    {
      "inputs": [
        {
          "internalType": "address",
          "name": "newOwner",
          "type": "address"
        }
      ],
      "name": "transferOwnership",
      "outputs": [],
      "stateMutability": "nonpayable",
      "type": "function"
    },
    {
      "inputs": [],
      "name": "usdtToken",
      "outputs": [
        {
          "internalType": "contract IERC20",
          "name": "",
          "type": "address"
        }
      ],
      "stateMutability": "view",
      "type": "function"
    },
    {
      "inputs": [
        {
          "internalType": "uint256",
          "name": "",
          "type": "uint256"
        }
      ],
      "name": "usedPaymentIds",
      "outputs": [
        {
          "internalType": "bool",
          "name": "",
          "type": "bool"
        }
      ],
      "stateMutability": "view",
      "type": "function"
    }
  ],
  "bytecode": "0x60a060405234801561001057600080fd5b50604051610a2e380380610a2e83398101604081905261002f916101c4565b338061005657604051631e4fbdf760e01b8152600060048201526024015b60405180910390fd5b61005f81610158565b5060017f9b779b17422d0df92223018b32b4d1fa46e071723d6817e2486d003becc55f00556001600160a01b0382166100da5760405162461bcd60e51b815260206004820152601460248201527f496e76616c696420555344542061646472657373000000000000000000000000604482015260640161004d565b6001600160a01b0381166101305760405162461bcd60e51b815260206004820152601560248201527f496e76616c69642061646d696e20616464726573730000000000000000000000604482015260640161004d565b6001600160a01b03918216608052600180546001600160a01b031916919092161790556101f7565b600080546001600160a01b038381166001600160a01b0319831681178455604051919092169283917f8be0079c531659141344cd1fd0a4f28419497f9722a3daafe3b4186f6b6457e09190a35050565b80516001600160a01b03811681146101bf57600080fd5b919050565b600080604083850312156101d757600080fd5b6101e0836101a8565b91506101ee602084016101a8565b90509250929050565b60805161080e61022060003960008181610141015281816101930152610415015261080e6000f3fe608060405234801561001057600080fd5b50600436106100935760003560e01c80638da5cb5b116100665780638da5cb5b146100f8578063a7542e7814610109578063a98ad46c1461013c578063e2bbb15814610163578063f2fde38b1461017657600080fd5b806336b19cd71461009857806357376198146100c8578063704b6c02146100dd578063715018a6146100f0575b600080fd5b6001546100ab906001600160a01b031681565b6040516001600160a01b0390911681526020015b60405180910390f35b6100db6100d6366004610751565b610189565b005b6100db6100eb36600461077b565b610236565b6100db6102d8565b6000546001600160a01b03166100ab565b61012c61011736600461079d565b60026020526000908152604090205460ff1681565b60405190151581526020016100bf565b6100ab7f000000000000000000000000000000000000000000000000000000000000000081565b6100db6101713660046107b6565b6102ec565b6100db61018436600461077b565b6104bc565b6101916104fa565b7f00000000000000000000000000000000000000000000000000000000000000006001600160a01b0316826001600160a01b03160361020c5760405162461bcd60e51b815260206004820152601260248201527110d85b9b9bdd081c995cd8dd59481554d11560721b60448201526064015b60405180910390fd5b6102326102216000546001600160a01b031690565b6001600160a01b0384169083610527565b5050565b61023e6104fa565b6001600160a01b0381166102865760405162461bcd60e51b815260206004820152600f60248201526e496e76616c6964206164647265737360881b6044820152606401610203565b600180546001600160a01b038381166001600160a01b0319831681179093556040519116919082907fb03e0c2c1a6f3df4b388eee743d2ab30b064eb703533a6808a42b292cff9a97990600090a35050565b6102e06104fa565b6102ea6000610561565b565b6102f46105b1565b600081116103445760405162461bcd60e51b815260206004820152601d60248201527f416d6f756e74206d7573742062652067726561746572207468616e20300000006044820152606401610203565b60008281526002602052604090205460ff16156103a35760405162461bcd60e51b815260206004820152601760248201527f5061796d656e7420494420616c726561647920757365640000000000000000006044820152606401610203565b6001546001600160a01b03166103f25760405162461bcd60e51b815260206004820152601460248201527310591b5a5b881dd85b1b195d081b9bdd081cd95d60621b6044820152606401610203565b6000828152600260205260409020805460ff1916600190811790915554610449907f00000000000000000000000000000000000000000000000000000000000000006001600160a01b0390811691339116846105df565b60015460408051838152602081018590526001600160a01b039092169133917fdcbc1c05240f31ff3ad067ef1ee35ce4997762752e3a095284754544f4c709d7910160405180910390a361023260017f9b779b17422d0df92223018b32b4d1fa46e071723d6817e2486d003becc55f0055565b6104c46104fa565b6001600160a01b0381166104ee57604051631e4fbdf760e01b815260006004820152602401610203565b6104f781610561565b50565b6000546001600160a01b031633146102ea5760405163118cdaa760e01b8152336004820152602401610203565b610534838383600161061b565b61055c57604051635274afe760e01b81526001600160a01b0384166004820152602401610203565b505050565b600080546001600160a01b038381166001600160a01b0319831681178455604051919092169283917f8be0079c531659141344cd1fd0a4f28419497f9722a3daafe3b4186f6b6457e09190a35050565b6105b9610681565b60027f9b779b17422d0df92223018b32b4d1fa46e071723d6817e2486d003becc55f0055565b6105ed8484848460016106c3565b61061557604051635274afe760e01b81526001600160a01b0385166004820152602401610203565b50505050565b60405163a9059cbb60e01b60008181526001600160a01b038616600452602485905291602083604481808b5af192506001600051148316610675578383151615610668573d6000823e3d81fd5b6000873b113d1516831692505b60405250949350505050565b7f9b779b17422d0df92223018b32b4d1fa46e071723d6817e2486d003becc55f00546002036102ea57604051633ee5aeb560e01b815260040160405180910390fd5b6040516323b872dd60e01b60008181526001600160a01b038781166004528616602452604485905291602083606481808c5af192506001600051148316610723578383151615610716573d6000823e3d81fd5b6000883b113d1516831692505b60405250600060605295945050505050565b80356001600160a01b038116811461074c57600080fd5b919050565b6000806040838503121561076457600080fd5b61076d83610735565b946020939093013593505050565b60006020828403121561078d57600080fd5b61079682610735565b9392505050565b6000602082840312156107af57600080fd5b5035919050565b600080604083850312156107c957600080fd5b5050803592602090910135915056fea2646970667358221220d66c8548540d0ed0ec262cd9b2436534fd0d575f0a4b942fd017c27a453797b464736f6c63430008140033",
  "linkReferences": {},
  "deployedLinkReferences": {}
}